:100000000EC028C027C026C025C0DDC223C022C024
:1000100099C220C01FC01EC01DC01CC01BC011241F
:100020001FBECFE5D2E0DEBFCDBF10E0A0E6B0E05E
:10003000ECEFF6E002C005900D92A236B107D9F7B9
:1000400020E0A2E6B0E001C01D92AE39B207E1F7B0
:10005000FDD252C3D5CFFC01208120FD05C021E097
:10006000208388B38C7F88BBE0916000F0916100B1
:1000700080819181893C910558F082819381893CEE
:10008000910530F087E192E090939A008093990077
:1000900008959C01A8E7B0E050969C9150979F5F0F
:1000A00097705096EC915097F0E0EE0FFF1FE858D4
:1000B000FF4F3183208350968C91509751968C93AB
:1000C000519750969C9381E0089520918900082EC5
:1000D000000C990BAC01420F511D27FD5A95552379
:1000E00074F020918900FC01E20FF11D27FDFA95C3
:1000F000EE0FFF1FE858FF4F8081918108952091F6
:100100008900FC01E20FF11D27FDFA95EE0FFF1F9C
:10011000E857FF4F8081918108959C01A6E6B0E0E9
:1001200050969C9150979F5F97705096EC91509786
:10013000F0E0EE0FFF1FEA59FF4F31832083509606
:100140008C91509751968C93519750969C9381E047
:10015000089520917700082E000C990BAC01420FF6
:10016000511D27FD5A95552374F020917700FC010D
:10017000E20FF11D27FDFA95EE0FFF1FEA59FF4F21
:1001800080819181089520917700FC01E20FF11D9B
:1001900027FDFA95EE0FFF1FEA58FF4F80819181EE
:1001A0000895FC01208122FD02C024E0208380E02C
:1001B0008CDF883C910560F480E0CBDF883C9105C2
:1001C00038F48BE290E090939A0080939900089520
:1001D000E0916000F09161002281338186819781F6
:1001E0002817390778F4828193818A34924050F439
:1001F00088B3836088BB8BE591E090939A008093ED
:1002000099000895208131818481958128173907CB
:1002100060F4808191818034924038F4C19A86E103
:1002200091E090939A00809399000895FC012081B9
:1002300023FD02C028E0208380E047DF883C910551
:1002400060F480E086DF883C910538F48BE290E032
:1002500090939A00809399000895E0916000F09146
:10026000610022813381868197812817390778F4CC
:10027000828193818A34924050F488B3836088BB32
:100280008BE591E090939A008093990008952081E6
:100290003181848195818217930760F480819181F7
:1002A0008236924038F0C19881ED90E090939A00A8
:1002B000809399000895FC01208124FD02C020E173
:1002C000208380E002DF883C910560F480E041DF1C
:1002D000883C910538F48BE290E090939A008093EB
:1002E00099000895E0916000F091610022813381CE
:1002F000868197818217930760F4828193818C367F
:10030000924038F0C09886E191E090939A008093F3
:10031000990008950F931F93CF93DF938C0180E092
:10032000D4DEEC018FEFD1DE8C0F9D1F9695879563
:10033000F8019183808380E00CDFEC018FEF09DF0F
:100340008C0F9D1F96958795F8019383828389EF83
:10035000BCDEEC018AEFB9DEC80FD91F8BEFB5DE2A
:10036000C80FD91F8CEFB1DE8C0F9D1F9695879516
:1003700096958795F8019583848389EFEADEEC01F1
:100380008AEFE7DEC80FD91F8BEFE3DEC80FD91F56
:100390008CEFDFDE8C0F9D1FEC01D695C795D695AF
:1003A000C795F801D783C683DF91CF911F910F9135
:1003B0000895833041F487B1836087B987B1837F23
:1003C00087B983E00895843031F4399A87B1827F08
:1003D00087B984E008958D3F41F487B18C6087B977
:1003E00087B18C7F87B98DEF08958F3F71F487B106
:1003F0008F70833079F087B18F70823041F087B190
:100400008F708C3031F08FEF08958FEF089584E076
:1004100008958DEF08952FB7F89460918C00709136
:100420008D0080918E0090918F002FBF08950F93C3
:100430001F93CF93DF93EC01888181FD0CC0EBDF2C
:1004400060936200709363008093640090936500F2
:10045000C19A82E0888380E038DE883C910560F4B0
:1004600080E077DE883C910538F48BE290E0909351
:100470009A008093990061C0E0916000F091610062
:10048000808191818336924068F0828193818D369C
:10049000924040F0C19881ED90E090939A00809353
:1004A00099004BC0808191818034924018F58281FF
:1004B00093818A349240F0F4AEDF00916200109193
:1004C00063002091640030916500DC01CB01801B4A
:1004D000910BA20BB30B81389E43A105B10550F0DF
:1004E00088B3836088BB8BE591E090939A008093FA
:1004F000990023C0E0916000F091610080819181BA
:1005000080349240D0F487DF009162001091630044
:100510002091640030916500DC01CB01801B910BC0
:10052000A20BB30B81389E43A105B10530F086E1E3
:1005300091E090939A0080939900DF91CF911F9161
:100540000F9108951F920F920FB60F9211242F93BF
:100550003F934F935F936F937F938F939F93AF934B
:10056000BF93CF93EF93FF93C4B18FEF22DF83301C
:1005700049F425B18C2F90E0922B8BDD84E019DFBC
:10058000369A0AC08FEF15DF843031F425B18C2FF5
:1005900090E0922BC2DD379880919B008160809320
:1005A0009B00FF91EF91CF91BF91AF919F918F9160
:1005B0007F916F915F914F913F912F910F900FBE5F
:1005C0000F901F9018951F920F920FB60F92112443
:1005D0002F934F935F936F937F938F939F9380910C
:1005E0008A0090918B00939590938B0080938A0062
:1005F000893E23E09207F0F040918C0050918D00ED
:1006000060918E0070918F004F5F5F4F6F4F7F4FF3
:10061000885E9340893E23E09207B0F740938C00B8
:1006200050938D0060938E0070938F0090938B0099
:1006300080938A009F918F917F916F915F914F91ED
:100640002F910F900FBE0F901F9018959DE088E19D
:100650000FB6F894A89581BD0FBE91BD87B3876092
:1006600087BB88B3887F88BBC29A87B3877E87BBE6
:1006700088B3877E88BB87B1806987B98DEF99DEA3
:1006800086B18B6086B983B7816083BF89B782608A
:1006900089BF7894C0DE6B017C018BE290E090937F
:1006A0009A0080939900C0E011E0D0E0B4DEDC0154
:1006B000CB018C199D09AE09BF098E379105A105A3
:1006C000B105C0F0A8DE6B017C01CC2339F080912C
:1006D0006000909161001EDECD2F08C0E09199006E
:1006E000F0919A0088E990E00995C12F379A83E04C
:0C06F00060DE369AA895DACFF894FFCFB0
:0206FC0090006C
:00000001FF
